{
  "contractName": "Election",
  "abi": [
    {
      "inputs": [],
      "stateMutability": "nonpayable",
      "type": "constructor"
    },
    {
      "inputs": [],
      "name": "admin",
      "outputs": [
        {
          "internalType": "address",
          "name": "",
          "type": "address"
        }
      ],
      "stateMutability": "view",
      "type": "function",
      "constant": true
    },
    {
      "inputs": [
        {
          "internalType": "uint256",
          "name": "",
          "type": "uint256"
        }
      ],
      "name": "candidateDetails",
      "outputs": [
        {
          "internalType": "uint256",
          "name": "candidateId",
          "type": "uint256"
        },
        {
          "internalType": "string",
          "name": "header",
          "type": "string"
        },
        {
          "internalType": "string",
          "name": "slogan",
          "type": "string"
        },
        {
          "internalType": "uint256",
          "name": "voteCount",
          "type": "uint256"
        }
      ],
      "stateMutability": "view",
      "type": "function",
      "constant": true
    },
    {
      "inputs": [
        {
          "internalType": "address",
          "name": "",
          "type": "address"
        }
      ],
      "name": "voterDetails",
      "outputs": [
        {
          "internalType": "address",
          "name": "voterAddress",
          "type": "address"
        },
        {
          "internalType": "string",
          "name": "name",
          "type": "string"
        },
        {
          "internalType": "string",
          "name": "phone",
          "type": "string"
        },
        {
          "internalType": "bool",
          "name": "isVerified",
          "type": "bool"
        },
        {
          "internalType": "bool",
          "name": "hasVoted",
          "type": "bool"
        },
        {
          "internalType": "bool",
          "name": "isRegistered",
          "type": "bool"
        }
      ],
      "stateMutability": "view",
      "type": "function",
      "constant": true
    },
    {
      "inputs": [
        {
          "internalType": "uint256",
          "name": "",
          "type": "uint256"
        }
      ],
      "name": "voters",
      "outputs": [
        {
          "internalType": "address",
          "name": "",
          "type": "address"
        }
      ],
      "stateMutability": "view",
      "type": "function",
      "constant": true
    },
    {
      "inputs": [],
      "name": "getAdmin",
      "outputs": [
        {
          "internalType": "address",
          "name": "",
          "type": "address"
        }
      ],
      "stateMutability": "view",
      "type": "function",
      "constant": true
    },
    {
      "inputs": [
        {
          "internalType": "string",
          "name": "_header",
          "type": "string"
        },
        {
          "internalType": "string",
          "name": "_slogan",
          "type": "string"
        }
      ],
      "name": "addCandidate",
      "outputs": [],
      "stateMutability": "nonpayable",
      "type": "function"
    },
    {
      "inputs": [
        {
          "internalType": "string",
          "name": "_adminName",
          "type": "string"
        },
        {
          "internalType": "string",
          "name": "_adminEmail",
          "type": "string"
        },
        {
          "internalType": "string",
          "name": "_adminTitle",
          "type": "string"
        },
        {
          "internalType": "string",
          "name": "_electionTitle",
          "type": "string"
        },
        {
          "internalType": "string",
          "name": "_organizationTitle",
          "type": "string"
        }
      ],
      "name": "setElectionDetails",
      "outputs": [],
      "stateMutability": "nonpayable",
      "type": "function"
    },
    {
      "inputs": [],
      "name": "getElectionDetails",
      "outputs": [
        {
          "internalType": "string",
          "name": "adminName",
          "type": "string"
        },
        {
          "internalType": "string",
          "name": "adminEmail",
          "type": "string"
        },
        {
          "internalType": "string",
          "name": "adminTitle",
          "type": "string"
        },
        {
          "internalType": "string",
          "name": "electionTitle",
          "type": "string"
        },
        {
          "internalType": "string",
          "name": "organizationTitle",
          "type": "string"
        }
      ],
      "stateMutability": "view",
      "type": "function",
      "constant": true
    },
    {
      "inputs": [],
      "name": "getTotalCandidate",
      "outputs": [
        {
          "internalType": "uint256",
          "name": "",
          "type": "uint256"
        }
      ],
      "stateMutability": "view",
      "type": "function",
      "constant": true
    },
    {
      "inputs": [],
      "name": "getTotalVoter",
      "outputs": [
        {
          "internalType": "uint256",
          "name": "",
          "type": "uint256"
        }
      ],
      "stateMutability": "view",
      "type": "function",
      "constant": true
    },
    {
      "inputs": [
        {
          "internalType": "string",
          "name": "_name",
          "type": "string"
        },
        {
          "internalType": "string",
          "name": "_phone",
          "type": "string"
        }
      ],
      "name": "registerAsVoter",
      "outputs": [],
      "stateMutability": "nonpayable",
      "type": "function"
    },
    {
      "inputs": [
        {
          "internalType": "bool",
          "name": "_verifiedStatus",
          "type": "bool"
        },
        {
          "internalType": "address",
          "name": "voterAddress",
          "type": "address"
        }
      ],
      "name": "verifyVoter",
      "outputs": [],
      "stateMutability": "nonpayable",
      "type": "function"
    },
    {
      "inputs": [
        {
          "internalType": "uint256",
          "name": "candidateId",
          "type": "uint256"
        }
      ],
      "name": "vote",
      "outputs": [],
      "stateMutability": "nonpayable",
      "type": "function"
    },
    {
      "inputs": [],
      "name": "endElection",
      "outputs": [],
      "stateMutability": "nonpayable",
      "type": "function"
    },
    {
      "inputs": [],
      "name": "getStart",
      "outputs": [
        {
          "internalType": "bool",
          "name": "",
          "type": "bool"
        }
      ],
      "stateMutability": "view",
      "type": "function",
      "constant": true
    },
    {
      "inputs": [],
      "name": "getEnd",
      "outputs": [
        {
          "internalType": "bool",
          "name": "",
          "type": "bool"
        }
      ],
      "stateMutability": "view",
      "type": "function",
      "constant": true
    }
  ],
  "bytecode": "0x6080604052730d757a719ab21173ed067af7ee86aa6cca7caf825f806101000a81548173ffffffffffffffffffffffffffffffffffffffff021916908373ffffffffffffffffffffffffffffffffffffffff160217905550348015610062575f80fd5b505f6001819055505f6002819055505f60035f6101000a81548160ff0219169083151502179055505f600360016101000a81548160ff021916908315150217905550611f48806100b15f395ff3fe608060405234801561000f575f80fd5b50600436106100fe575f3560e01c806364d198a111610095578063da58c7d911610064578063da58c7d91461027a578063ed836bc3146102aa578063f851a440146102cc578063fee0d19a146102ea576100fe565b806364d198a1146102025780636e9960c3146102205780639f05a36d1461023e578063c5292c671461025c576100fe565b8063506b8e0a116100d1578063506b8e0a146101745780635938750d1461019057806359f78468146101c55780636247e532146101cf576100fe565b80630121b93f146101025780630b93400e1461011e578063253e74e21461013c57806326541b5614610158575b5f80fd5b61011c60048036038101906101179190611315565b610306565b005b610126610545565b604051610133919061134f565b60405180910390f35b610156600480360381019061015191906114a4565b61054e565b005b610172600480360381019061016d91906115a7565b6106ae565b005b61018e600480360381019061018991906116ac565b6107d3565b005b6101aa60048036038101906101a591906116ea565b6108bb565b6040516101bc969594939291906117ad565b60405180910390f35b6101cd610a44565b005b6101e960048036038101906101e49190611315565b610b07565b6040516101f9949392919061181a565b60405180910390f35b61020a610c3f565b604051610217919061134f565b60405180910390f35b610228610c48565b604051610235919061186b565b60405180910390f35b610246610c6f565b6040516102539190611884565b60405180910390f35b610264610c85565b6040516102719190611884565b60405180910390f35b610294600480360381019061028f9190611315565b610c9a565b6040516102a1919061186b565b60405180910390f35b6102b2610cd5565b6040516102c395949392919061189d565b60405180910390f35b6102d4610fb8565b6040516102e1919061186b565b60405180910390f35b61030460048036038101906102ff91906115a7565b610fdb565b005b600b5f3373ffffffffffffffffffffffffffffffffffffffff1673ffffffffffffffffffffffffffffffffffffffff1681526020019081526020015f2060030160019054906101000a900460ff1615610394576040517f08c379a000000000000000000000000000000000000000000000000000000000815260040161038b9061195b565b60405180910390fd5b600b5f3373ffffffffffffffffffffffffffffffffffffffff1673ffffffffffffffffffffffffffffffffffffffff1681526020019081526020015f206003015f9054906101000a900460ff16610420576040517f08c379a0000000000000000000000000000000000000000000000000000000008152600401610417906119c3565b60405180910390fd5b60035f9054906101000a900460ff1661046e576040517f08c379a000000000000000000000000000000000000000000000000000000000815260040161046590611a2b565b60405180910390fd5b600360019054906101000a900460ff16156104be576040517f08c379a00000000000000000000000000000000000000000000000000000000081526004016104b590611a93565b60405180910390fd5b600160045f8381526020019081526020015f206003015f8282546104e29190611ade565b925050819055506001600b5f3373ffffffffffffffffffffffffffffffffffffffff1673ffffffffffffffffffffffffffffffffffffffff1681526020019081526020015f2060030160016101000a81548160ff02191690831515021790555050565b5f600254905090565b5f8054906101000a900473ffffffffffffffffffffffffffffffffffffffff1673ffffffffffffffffffffffffffffffffffffffff163373ffffffffffffffffffffffffffffffffffffffff16146105db576040517f08c379a00000000000000000000000000000000000000000000000000000000081526004016105d290611b5b565b60405180910390fd5b6040518060a001604052808681526020018581526020018481526020018381526020018281525060055f820151815f0190816106179190611d73565b50602082015181600101908161062d9190611d73565b5060408201518160020190816106439190611d73565b5060608201518160030190816106599190611d73565b50608082015181600401908161066f9190611d73565b50905050600160035f6101000a81548160ff0219169083151502179055505f600360016101000a81548160ff0219169083151502179055505050505050565b5f8054906101000a900473ffffffffffffffffffffffffffffffffffffffff1673ffffffffffffffffffffffffffffffffffffffff163373ffffffffffffffffffffffffffffffffffffffff161461073b576040517f08c379a000000000000000000000000000000000000000000000000000000000815260040161073290611b5b565b60405180910390fd5b5f604051806080016040528060015481526020018481526020018381526020015f81525090508060045f60015481526020019081526020015f205f820151815f015560208201518160010190816107929190611d73565b5060408201518160020190816107a89190611d73565b50606082015181600301559050506001805f8282546107c79190611ade565b92505081905550505050565b5f8054906101000a900473ffffffffffffffffffffffffffffffffffffffff1673ffffffffffffffffffffffffffffffffffffffff163373ffffffffffffffffffffffffffffffffffffffff1614610860576040517f08c379a000000000000000000000000000000000000000000000000000000000815260040161085790611b5b565b60405180910390fd5b81600b5f8373ffffffffffffffffffffffffffffffffffffffff1673ffffffffffffffffffffffffffffffffffffffff1681526020019081526020015f206003015f6101000a81548160ff0219169083151502179055505050565b600b602052805f5260405f205f91509050805f015f9054906101000a900473ffffffffffffffffffffffffffffffffffffffff16908060010180546108ff90611ba6565b80601f016020809104026020016040519081016040528092919081815260200182805461092b90611ba6565b80156109765780601f1061094d57610100808354040283529160200191610976565b820191905f5260205f20905b81548152906001019060200180831161095957829003601f168201915b50505050509080600201805461098b90611ba6565b80601f01602080910402602001604051908101604052809291908181526020018280546109b790611ba6565b8015610a025780601f106109d957610100808354040283529160200191610a02565b820191905f5260205f20905b8154815290600101906020018083116109e557829003601f168201915b505050505090806003015f9054906101000a900460ff16908060030160019054906101000a900460ff16908060030160029054906101000a900460ff16905086565b5f8054906101000a900473ffffffffffffffffffffffffffffffffffffffff1673ffffffffffffffffffffffffffffffffffffffff163373ffffffffffffffffffffffffffffffffffffffff1614610ad1576040517f08c379a0000000000000000000000000000000000000000000000000000000008152600401610ac890611b5b565b60405180910390fd5b6001600360016101000a81548160ff0219169083151502179055505f60035f6101000a81548160ff021916908315150217905550565b6004602052805f5260405f205f91509050805f015490806001018054610b2c90611ba6565b80601f0160208091040260200160405190810160405280929190818152602001828054610b5890611ba6565b8015610ba35780601f10610b7a57610100808354040283529160200191610ba3565b820191905f5260205f20905b815481529060010190602001808311610b8657829003601f168201915b505050505090806002018054610bb890611ba6565b80601f0160208091040260200160405190810160405280929190818152602001828054610be490611ba6565b8015610c2f5780601f10610c0657610100808354040283529160200191610c2f565b820191905f5260205f20905b815481529060010190602001808311610c1257829003601f168201915b5050505050908060030154905084565b5f600154905090565b5f805f9054906101000a900473ffffffffffffffffffffffffffffffffffffffff16905090565b5f600360019054906101000a900460ff16905090565b5f60035f9054906101000a900460ff16905090565b600a8181548110610ca9575f80fd5b905f5260205f20015f915054906101000a900473ffffffffffffffffffffffffffffffffffffffff1681565b606080606080606060055f016005600101600560020160056003016005600401848054610d0190611ba6565b80601f0160208091040260200160405190810160405280929190818152602001828054610d2d90611ba6565b8015610d785780601f10610d4f57610100808354040283529160200191610d78565b820191905f5260205f20905b815481529060010190602001808311610d5b57829003601f168201915b50505050509450838054610d8b90611ba6565b80601f0160208091040260200160405190810160405280929190818152602001828054610db790611ba6565b8015610e025780601f10610dd957610100808354040283529160200191610e02565b820191905f5260205f20905b815481529060010190602001808311610de557829003601f168201915b50505050509350828054610e1590611ba6565b80601f0160208091040260200160405190810160405280929190818152602001828054610e4190611ba6565b8015610e8c5780601f10610e6357610100808354040283529160200191610e8c565b820191905f5260205f20905b815481529060010190602001808311610e6f57829003601f168201915b50505050509250818054610e9f90611ba6565b80601f0160208091040260200160405190810160405280929190818152602001828054610ecb90611ba6565b8015610f165780601f10610eed57610100808354040283529160200191610f16565b820191905f5260205f20905b815481529060010190602001808311610ef957829003601f168201915b50505050509150808054610f2990611ba6565b80601f0160208091040260200160405190810160405280929190818152602001828054610f5590611ba6565b8015610fa05780601f10610f7757610100808354040283529160200191610fa0565b820191905f5260205f20905b815481529060010190602001808311610f8357829003601f168201915b50505050509050945094509450945094509091929394565b5f8054906101000a900473ffffffffffffffffffffffffffffffffffffffff1681565b5f8054906101000a900473ffffffffffffffffffffffffffffffffffffffff1673ffffffffffffffffffffffffffffffffffffffff163373ffffffffffffffffffffffffffffffffffffffff1603611068576040517f08c379a000000000000000000000000000000000000000000000000000000000815260040161105f90611e8c565b60405180910390fd5b600b5f3373ffffffffffffffffffffffffffffffffffffffff1673ffffffffffffffffffffffffffffffffffffffff1681526020019081526020015f2060030160029054906101000a900460ff16156110f6576040517f08c379a00000000000000000000000000000000000000000000000000000000081526004016110ed90611ef4565b60405180910390fd5b5f6040518060c001604052803373ffffffffffffffffffffffffffffffffffffffff1681526020018481526020018381526020015f151581526020015f1515815260200160011515815250905080600b5f3373ffffffffffffffffffffffffffffffffffffffff1673ffffffffffffffffffffffffffffffffffffffff1681526020019081526020015f205f820151815f015f6101000a81548173ffffffffffffffffffffffffffffffffffffffff021916908373ffffffffffffffffffffffffffffffffffffffff16021790555060208201518160010190816111da9190611d73565b5060408201518160020190816111f09190611d73565b506060820151816003015f6101000a81548160ff02191690831515021790555060808201518160030160016101000a81548160ff02191690831515021790555060a08201518160030160026101000a81548160ff021916908315150217905550905050600a33908060018154018082558091505060019003905f5260205f20015f9091909190916101000a81548173ffffffffffffffffffffffffffffffffffffffff021916908373ffffffffffffffffffffffffffffffffffffffff160217905550600160025f8282546112c59190611ade565b92505081905550505050565b5f604051905090565b5f80fd5b5f80fd5b5f819050919050565b6112f4816112e2565b81146112fe575f80fd5b50565b5f8135905061130f816112eb565b92915050565b5f6020828403121561132a576113296112da565b5b5f61133784828501611301565b91505092915050565b611349816112e2565b82525050565b5f6020820190506113625f830184611340565b92915050565b5f80fd5b5f80fd5b5f601f19601f8301169050919050565b7f4e487b71000000000000000000000000000000000000000000000000000000005f52604160045260245ffd5b6113b682611370565b810181811067ffffffffffffffff821117156113d5576113d4611380565b5b80604052505050565b5f6113e76112d1565b90506113f382826113ad565b919050565b5f67ffffffffffffffff82111561141257611411611380565b5b61141b82611370565b9050602081019050919050565b828183375f83830152505050565b5f611448611443846113f8565b6113de565b9050828152602081018484840111156114645761146361136c565b5b61146f848285611428565b509392505050565b5f82601f83011261148b5761148a611368565b5b813561149b848260208601611436565b91505092915050565b5f805f805f60a086880312156114bd576114bc6112da565b5b5f86013567ffffffffffffffff8111156114da576114d96112de565b5b6114e688828901611477565b955050602086013567ffffffffffffffff811115611507576115066112de565b5b61151388828901611477565b945050604086013567ffffffffffffffff811115611534576115336112de565b5b61154088828901611477565b935050606086013567ffffffffffffffff811115611561576115606112de565b5b61156d88828901611477565b925050608086013567ffffffffffffffff81111561158e5761158d6112de565b5b61159a88828901611477565b9150509295509295909350565b5f80604083850312156115bd576115bc6112da565b5b5f83013567ffffffffffffffff8111156115da576115d96112de565b5b6115e685828601611477565b925050602083013567ffffffffffffffff811115611607576116066112de565b5b61161385828601611477565b9150509250929050565b5f8115159050919050565b6116318161161d565b811461163b575f80fd5b50565b5f8135905061164c81611628565b92915050565b5f73ffffffffffffffffffffffffffffffffffffffff82169050919050565b5f61167b82611652565b9050919050565b61168b81611671565b8114611695575f80fd5b50565b5f813590506116a681611682565b92915050565b5f80604083850312156116c2576116c16112da565b5b5f6116cf8582860161163e565b92505060206116e085828601611698565b9150509250929050565b5f602082840312156116ff576116fe6112da565b5b5f61170c84828501611698565b91505092915050565b61171e81611671565b82525050565b5f81519050919050565b5f82825260208201905092915050565b5f5b8381101561175b578082015181840152602081019050611740565b5f8484015250505050565b5f61177082611724565b61177a818561172e565b935061178a81856020860161173e565b61179381611370565b840191505092915050565b6117a78161161d565b82525050565b5f60c0820190506117c05f830189611715565b81810360208301526117d28188611766565b905081810360408301526117e68187611766565b90506117f5606083018661179e565b611802608083018561179e565b61180f60a083018461179e565b979650505050505050565b5f60808201905061182d5f830187611340565b818103602083015261183f8186611766565b905081810360408301526118538185611766565b90506118626060830184611340565b95945050505050565b5f60208201905061187e5f830184611715565b92915050565b5f6020820190506118975f83018461179e565b92915050565b5f60a0820190508181035f8301526118b58188611766565b905081810360208301526118c98187611766565b905081810360408301526118dd8186611766565b905081810360608301526118f18185611766565b905081810360808301526119058184611766565b90509695505050505050565b7f416c726561647920766f746564000000000000000000000000000000000000005f82015250565b5f611945600d8361172e565b915061195082611911565b602082019050919050565b5f6020820190508181035f83015261197281611939565b9050919050565b7f4e6f7420766572696669656400000000000000000000000000000000000000005f82015250565b5f6119ad600c8361172e565b91506119b882611979565b602082019050919050565b5f6020820190508181035f8301526119da816119a1565b9050919050565b7f456c656374696f6e206e6f7420737461727465640000000000000000000000005f82015250565b5f611a1560148361172e565b9150611a20826119e1565b602082019050919050565b5f6020820190508181035f830152611a4281611a09565b9050919050565b7f456c656374696f6e20656e6465640000000000000000000000000000000000005f82015250565b5f611a7d600e8361172e565b9150611a8882611a49565b602082019050919050565b5f6020820190508181035f830152611aaa81611a71565b9050919050565b7f4e487b71000000000000000000000000000000000000000000000000000000005f52601160045260245ffd5b5f611ae8826112e2565b9150611af3836112e2565b9250828201905080821115611b0b57611b0a611ab1565b5b92915050565b7f4f6e6c792061646d696e20616c6c6f77656400000000000000000000000000005f82015250565b5f611b4560128361172e565b9150611b5082611b11565b602082019050919050565b5f6020820190508181035f830152611b7281611b39565b9050919050565b7f4e487b71000000000000000000000000000000000000000000000000000000005f52602260045260245ffd5b5f6002820490506001821680611bbd57607f821691505b602082108103611bd057611bcf611b79565b5b50919050565b5f819050815f5260205f209050919050565b5f6020601f8301049050919050565b5f82821b905092915050565b5f60088302611c327fffffffffffffffffffffffffffffffffffffffffffffffffffffffffffffffff82611bf7565b611c3c8683611bf7565b95508019841693508086168417925050509392505050565b5f819050919050565b5f611c77611c72611c6d846112e2565b611c54565b6112e2565b9050919050565b5f819050919050565b611c9083611c5d565b611ca4611c9c82611c7e565b848454611c03565b825550505050565b5f90565b611cb8611cac565b611cc3818484611c87565b505050565b5b81811015611ce657611cdb5f82611cb0565b600181019050611cc9565b5050565b601f821115611d2b57611cfc81611bd6565b611d0584611be8565b81016020851015611d14578190505b611d28611d2085611be8565b830182611cc8565b50505b505050565b5f82821c905092915050565b5f611d4b5f1984600802611d30565b1980831691505092915050565b5f611d638383611d3c565b9150826002028217905092915050565b611d7c82611724565b67ffffffffffffffff811115611d9557611d94611380565b5b611d9f8254611ba6565b611daa828285611cea565b5f60209050601f831160018114611ddb575f8415611dc9578287015190505b611dd38582611d58565b865550611e3a565b601f198416611de986611bd6565b5f5b82811015611e1057848901518255600182019150602085019450602081019050611deb565b86831015611e2d5784890151611e29601f891682611d3c565b8355505b6001600288020188555050505b505050505050565b7f41646d696e2063616e6e6f7420726567697374657220617320766f74657200005f82015250565b5f611e76601e8361172e565b9150611e8182611e42565b602082019050919050565b5f6020820190508181035f830152611ea381611e6a565b9050919050565b7f416c7265616479207265676973746572656400000000000000000000000000005f82015250565b5f611ede60128361172e565b9150611ee982611eaa565b602082019050919050565b5f6020820190508181035f830152611f0b81611ed2565b905091905056fea2646970667358221220a048e1e095d5b80b592ef92050e014cc30e783772802846f1a71f7a2067468ca64736f6c63430008150033",
  "immutableReferences": {},
  "source": "// SPDX-License-Identifier: UNLICENSED\npragma solidity ^0.8.21;\n\ncontract Election {\n    address public admin = 0x0D757a719AB21173ED067af7Ee86aA6CCa7cAf82; // Replace with your desired admin address\n    uint256 candidateCount;\n    uint256 voterCount;\n    bool start;\n    bool end;\n\n    constructor() {\n        candidateCount = 0;\n        voterCount = 0;\n        start = false;\n        end = false;\n    }\n\n    function getAdmin() public view returns (address) {\n        return admin;\n    }\n\n    modifier onlyAdmin() {\n        require(msg.sender == admin, \"Only admin allowed\");\n        _;\n    }\n\n    // Modeling a candidate\n    struct Candidate {\n        uint256 candidateId;\n        string header;\n        string slogan;\n        uint256 voteCount;\n    }\n\n    mapping(uint256 => Candidate) public candidateDetails;\n\n    function addCandidate(string memory _header, string memory _slogan)\n        public\n        onlyAdmin\n    {\n        Candidate memory newCandidate = Candidate({\n            candidateId: candidateCount,\n            header: _header,\n            slogan: _slogan,\n            voteCount: 0\n        });\n        candidateDetails[candidateCount] = newCandidate;\n        candidateCount += 1;\n    }\n\n    // Modeling Election Details\n    struct ElectionDetails {\n        string adminName;\n        string adminEmail;\n        string adminTitle;\n        string electionTitle;\n        string organizationTitle;\n    }\n\n    ElectionDetails electionDetails;\n\n    function setElectionDetails(\n        string memory _adminName,\n        string memory _adminEmail,\n        string memory _adminTitle,\n        string memory _electionTitle,\n        string memory _organizationTitle\n    )\n        public\n        onlyAdmin\n    {\n        electionDetails = ElectionDetails(\n            _adminName,\n            _adminEmail,\n            _adminTitle,\n            _electionTitle,\n            _organizationTitle\n        );\n        start = true;\n        end = false;\n    }\n\n    function getElectionDetails()\n        public\n        view\n        returns (\n            string memory adminName,\n            string memory adminEmail,\n            string memory adminTitle,\n            string memory electionTitle,\n            string memory organizationTitle\n        )\n    {\n        return (\n            electionDetails.adminName,\n            electionDetails.adminEmail,\n            electionDetails.adminTitle,\n            electionDetails.electionTitle,\n            electionDetails.organizationTitle\n        );\n    }\n\n    function getTotalCandidate() public view returns (uint256) {\n        return candidateCount;\n    }\n\n    function getTotalVoter() public view returns (uint256) {\n        return voterCount;\n    }\n\n    // Modeling a voter\n    struct Voter {\n        address voterAddress;\n        string name;\n        string phone;\n        bool isVerified;\n        bool hasVoted;\n        bool isRegistered;\n    }\n\n    address[] public voters;\n    mapping(address => Voter) public voterDetails;\n\n    function registerAsVoter(string memory _name, string memory _phone) public {\n        require(msg.sender != admin, \"Admin cannot register as voter\");\n        require(!voterDetails[msg.sender].isRegistered, \"Already registered\");\n\n        Voter memory newVoter = Voter({\n            voterAddress: msg.sender,\n            name: _name,\n            phone: _phone,\n            hasVoted: false,\n            isVerified: false,\n            isRegistered: true\n        });\n\n        voterDetails[msg.sender] = newVoter;\n        voters.push(msg.sender);\n        voterCount += 1;\n    }\n\n    function verifyVoter(bool _verifiedStatus, address voterAddress)\n        public\n        onlyAdmin\n    {\n        voterDetails[voterAddress].isVerified = _verifiedStatus;\n    }\n\n    function vote(uint256 candidateId) public {\n        require(!voterDetails[msg.sender].hasVoted, \"Already voted\");\n        require(voterDetails[msg.sender].isVerified, \"Not verified\");\n        require(start, \"Election not started\");\n        require(!end, \"Election ended\");\n\n        candidateDetails[candidateId].voteCount += 1;\n        voterDetails[msg.sender].hasVoted = true;\n    }\n\n    function endElection() public onlyAdmin {\n        end = true;\n        start = false;\n    }\n\n    function getStart() public view returns (bool) {\n        return start;\n    }\n\n    function getEnd() public view returns (bool) {\n        return end;\n    }\n}\n",
  "sourcePath": "C:\\Users\\nshas\\OneDrive\\Desktop\\prototype3\\contracts\\Election.sol",
  "compiler": {
    "name": "solc",
    "version": "0.8.21+commit.d9974bed.Emscripten.clang"
  },
  "schemaVersion": "3.4.16",
  "updatedAt": "2025-05-21T12:35:39.322Z",
  "networkType": "ethereum",
  "devdoc": {
    "kind": "dev",
    "methods": {},
    "version": 1
  },
  "userdoc": {
    "kind": "user",
    "methods": {},
    "version": 1
  }
}